:02000002B0004C
:1040000000400B000C930B00000006000C000502A2
:084010000401A60F00000000EE
:044018002C810B00EC
:1040200009480A49884208B505D0094A824202D0A7
:10403000121A03F0B7FF0748074A0021121A03F0CB
:10404000BFFF014808BD00BFE8E00320388E0B0029
:1040500094E5032094E50320EDE7032070B5074EB7
:10406000074C02F083FBA41BA4080025AC4200D13E
:1040700070BD56F8043B98470135F7E7E48D0B0017
:104080000C8E0B0000F0F0B908B500F069FABDE83D
:10409000084002F023BB01F089BF01F087BF01F0A7
:1040A0008DBF000008B5034A03490C2001F0DAFE79
:1040B000FEE700BF655B0B0040810B000078B0FAA3
:1040C00080F04009704701230370704770B50C1EE3
:1040D000064615460BDA0A2A09D12D2102F022FAEA
:1040E0006142EAB23046BDE8704002F034BA21467F
:1040F000F7E70EB403B503AB002153F8042B01938B
:1041000002F047FA02B05DF804EB03B0704700001C
:1041100038B584690A4B036005467CB16368013B8E
:1041200063605BB9236820469B689847A368013B9E
:10413000A3601BB923682046DB689847284638BD32
:104140009C8B0B0010B50446FFF7E2FF20461C21B4
:10415000FFF7A5FF204610BD2DE9F0418CB00546C4
:104160000F4668467749DDF8488014461E4602F03F
:10417000FCF8DFF828E27449DEF800307348744A2E
:10418000DFF81CC2AB4219D10B68BB4216D10368E1
:10419000A34213D11368B34210D1DCF80030434579
:1041A0000CD102F0FDFB6B49FFF7A3FF002468462A
:1041B00002F090F820460CB0BDE8F081CEF8005037
:1041C0000F6004601660CCF80080002F00F0B5800E
:1041D0006149684602F0F7F8694608A802F0E8F875
:1041E0000A22414604A802F000F904A908A802F036
:1041F00044F95A4902F04DF90146684602F0C9F8FF
:1042000004A802F067F808A802F064F8694608A854
:1042100002F0CEF80A22314604A802F0E6F804A91A
:1042200008A802F02AF94E4902F033F9014668461F
:1042300002F0AFF804A802F04DF808A802F04AF81E
:10424000694608A802F0B4F80A22214604A802F040
:10425000CCF804A908A802F010F9424902F019F9B3
:104260000146684602F095F804A802F033F808A861
:1042700002F030F83C493D480023502202F04AFD4C
:104280000446002893D002F08BFB394902F059F91B
:1042900002F086FB009902F054F93649334802F0E7
:1042A0003DF93549314802F039F934492F4802F0D7
:1042B00035F90A222D482946FFF708FF30492B48D7
:1042C00002F03FF92F49294802F03BF92E492748CF
:1042D00002F024F92449254802F033F92B492348F8
:1042E00002F01CF90A220299204802F034F91F4812
:1042F00002F01BF926491D4802F023F91B4802F081
:1043000014F90099194802F01CF902F049FB2149FF
:1043100002F017F902F044FB1449044608A802F021
:104320007FF90899204602F00CF908A801F0D2FFA5
:104330000E4802F0A5FE012439E71749684602F04D
:1043400042F897E72F820B0000E6032008E60320DF
:10435000F8E5032055810B0071810B0083810B0070
:104360008B810B009E810B008A840B0094E5032057
:10437000A0810B00B7810B0061840B00C1810B0091
:10438000CA810B00F3830B00DA810B00E1810B0083
:10439000F2810B0019820B0093810B00FCE50320D6
:1043A00004E603201FB525490446684601F0DDFFF9
:1043B00002F0F6FA22462249FFF79BFE21496846A1
:1043C00002F03DF8204A2149128851F82410204873
:1043D000002302F09FFC28B31E491D4802F0B1F8EB
:1043E0001D491B4802F0ADF81C49194802F0A9F814
:1043F0001B49174802F0A5F81A49154802F08EF833
:10440000029913480A2202F0A6F8114802F08DF82A
:104410000F4802F08AF800990D4802F07FF80C4826
:1044200002F083F80A4802F0F3FC10B1084802F0E9
:1044300027FE684601F04EFF04B010BD2F820B002E
:1044400022820B0030820B0014E1032000E10320E4
:10445000DCE503205C830B0084830B00AA830B0044
:10446000E7830B00E1810B0010B594B003F066F810
:1044700002F058FB76212348234C01F0C3FA234B6A
:104480001870234800F095F900210E2002F084FFF7
:1044900001210A2002F080FF0121092002F07CFFA7
:1044A0000121022002F078FF3C220221194800F08D
:1044B00097FE184800F0ACFD164800F021FE0023DE
:1044C0001A461946606801F021FD3822002106A82D
:1044D00003F076FD4C2301930F4B02930A22002335
:1044E000CDE90323194601AA6068059301F02EFD6A
:1044F000002360681A46194614B0BDE8104001F068
:10450000E5BC00BF14E6032018E70320A4E603205F
:1045100090E603205CE60320FE830B0007B5064D02
:1045200006260024002300941A46194606202E6011
:10453000FFF712FEF6E700BF58E6032007B5064D69
:10454000064C0626FF2322680093012106202E60D8
:10455000FFF702FEF6E700BF10E60320E8E00320C5
:1045600037B501214248434D434C01F0C4F843485C
:1045700001F01AFA414801F017FAFDEEC07A17EE81
:10458000900AC5ED007A03F063FA37A3D3E900235C
:1045900003F0C8FA3A4B002203F00EF903F0D4FC02
:1045A00001212060324801F09CF83148012101F0DE
:1045B0009DF8002211462E4801F090F82A683149F2
:1045C0002B48FFF796FD22682F4929482F4CFFF70B
:1045D00090FD274800F094FD254800F019FD236860
:1045E000322B03DC2A492248FFF783FD204800F0E4
:1045F00087FD0E2002F00DFF20600024FF2340F213
:10460000BB322146009402F031F8C1B2214800F0DB
:10461000F8FA4FF4004221461E481F4C00F0AEFA53
:104620001C4800F0FFF8208802F0E0FE6368021EDC
:1046300018BF01229A42194B05D0626018B11A784E
:1046400082F001021A70197841B101210A2002F0AA
:10465000B4FE0320FFF7A6FEFFF770FF0A2002F06A
:10466000ACFEFFF75BFF00BFCDCCCCCCCCCCFC3F8D
:104670005CE60320A8E60320ACE6032014E6032052
:104680000000404009840B000E840B00B0E60320BC
:1046900013840B0090E6032048E603200CE6032079
:1046A000022310B51A460121204800F0A9F820483D
:1046B00001F035F81F49204801F057FE1F4A204BF2
:1046C00012681A601F4A204812685A601F4A12680E
:1046D0009A601F4A1268DA601E4A12681A611E4AFE
:1046E00012685A611D4A12689A6102F013FD1C4853
:1046F00002F010FD1B4B1C4A9A600024C3E90044E1
:10470000032001F0BFFB0421184800F06BFC184B9C
:1047100013201860214602F03FFE164B122018604D
:104720002146BDE8104002F037BE00BF90E60320EE
:1047300014E603202F820B0080E60320CCE5032043
:10474000B0E50320F4E0032094E50320FCE003201F
:10475000ECE00320E8E00320F0E00320F8E0032091
:10476000DCE50320D0E503200000FFFF5CE603202A
:1047700048E6032050E6032038B50446C0680D46DD
:1047800008B101F01BFCA379062B0CBF0420032009
:1047900010FB05F080B2A08001F008FCE06028B1B9
:1047A000A288002103F00CFC658038BDA0806080E9
:1047B000FBE710B504460121C07902F0EDFDE07978
:1047C000002102F0FAFD0123237010BD37B50378F4
:1047D00005460C461BB1C079002102F0DDFD2B78A7
:1047E000EC715BB1A0B20121019002F0D5FD0198FE
:1047F000002103B0BDE8304002F0DFBD03B030BDA2
:1048000070B50025044616468371C0E9035505704E
:104810000572FFF7B1FF20463146FFF7D7FF20466C
:1048200070BD0000C368002B00F0A4812DE9F04F9B
:104830008379023BDBB2042B9CBFBF4A52F8234072
:1048400085B0054688BF322401F094F92B69C01A5F
:10485000A042F9D3B94CAE88D4F800351BB9D4F8CE
:104860006035002B7EDBB64CD4F8003523B9D4F884
:104870006035002BC0F26E81B24CD4F80035002BAD
:1048800000F04481EB79B04AB04C1268190102EB98
:104890000313575CAE495B78D1F8FC2042F080727C
:1048A000C1F8FC20226803F01F0343EA47130127E5
:1048B0003A432260A988D5F80C80D4F804909F4030
:1048C000002944D04FF0000E72464FF0A04118F876
:1048D00001CB0820802663689B1A462BFBD96268AF
:1048E000D1F808351CEA060F43EA0703C1F808357A
:1048F0002FD063689B1A282BFBD9D1F80C350138CF
:1049000043EA07034FEA5606C1F80C35E3D1AB88FA
:104910000EF1010E1FFA8EFE7345D8D84FF4307198
:1049200003FB01F163689B1A462BFBD96368A3EB79
:1049300009098945C0F0E4804FF4967001F012F93E
:10494000A988D5F80C80D4F804900029BAD10A4679
:10495000E8E763689B1A112BCFD863689B1A112B69
:10496000F7D9CAE7D4F86435002BBFF67CAFD4F88A
:104970006835002BBFF677AFD4F86C35002BBFF647
:1049800072AF3601331D1846009301F00FFB00286B
:104990003FF478AFAB88002B00F0ED80EA68013B74
:1049A00012FA83F702F1FF3E002348F2060248F2B2
:1049B0000D011EF801CF1CF0800F0CBF93468B46F3
:1049C0001CF0400F0CBF16460E461CF0200F0CBF0B
:1049D0009046884603F10109CDF80880019603F15D
:1049E00002081FFA89F9019E20F813B01FFA88F80F
:1049F00020F81960029E20F8186003F103081CF0EB
:104A0000100F1FFA88F80CBF93468B4620F818B099
:104A100003F104081CF0080F1FFA88F80CBF934636
:104A20008B4620F818B003F105081CF0040F1FFA9C
:104A300088F80CBF93468B4620F818B003F1080A9B
:104A400003F1060807339BB21CF0020F1FFA88F827
:104A50000CBF93468B46CDF80CA01CF0010F20F83C
:104A600018B015BF20F8131020F813201FFA8AF38E
:104A7000BDF80C3077459CD1591C023389B29BB2EA
:104A800049005B004FF400474752009AC7522E4B33
:104A900056081F6800221423C4F80425C4F80C2506
:104AA000C4F80835C4F81425C4F81025C4F8200546
:104AB000C4F82465C4F82825C4F82C25EB7907EB45
:104AC000031C1B010121FE5C9CF8013003F01F0355
:104AD00043EA4613C4F86035C4F80015C4F8102141
:104AE000A160D4F81031002BFBD000234FF0FF322F
:104AF000C4F81031C4F80035C4F8602501F05EFA3E
:104B000001F038F8286105B0BDE8F08FD4F86035C1
:104B1000002BBFF6B7AED4F86435002BBFF6B2AEAB
:104B2000D4F86835002BBFF6ADAED4F86C35002B49
:104B3000BFF6A8AE25E700BF98840B0000C0014077
:104B40000010024000200240B4E60320001000E004
:104B500000ED00E0D4F86435002BBFF68DAED4F83C
:104B60006835002BBFF688AED4F86C35002BBFF645
:104B700083AE06E770470423022183E743888B4214
:104B8000F0B52DD9067AC2F30743C2F30724D5B294
:104B90003EB1734374437543C3F30723C4F307243F
:104BA0002D0A90F806C0C768BCF1060F0CBF04269A
:104BB00003264E43ACF1020CB919BCF1060F1DD807
:104BC000DFE80CF0041C08040F040400BC554B7013
:104BD0008D7005E0FE2B28BFFE23BB554D708C70F9
:104BE000F0BDBB554C708D70037A120E13B9D2B262
:104BF000CA70F5E75A43C2F30722F9E7BB554C7078
:104C0000E6E7037A4A1CD2B2934270B51FD0013B4B
:104C100013F0FF03C4680CD0FF291FBF110201F17C
:104C2000FF31B1FBF3F39BB204BF4FF6FF71B1FB51
:104C3000F3F325468688291B89B28E4206D9297846
:104C40005943C1F3072105F8011BF3E7027270BD58
:104C500008B500F03FFF014B186008BDB4E6032023
:104C6000F0B5457EBDF81440022D69D0032D00F04B
:104C70009980012D6CD10589D2432A4412B2002AB1
:104C80005DDBB0F90850954259DD0029BEBF5B18C5
:104C90001BB20021B0F90A00CD188542C4BF431AE7
:104CA0001BB2002B4BDDC1F3C400DFF820C102EBC7
:104CB000C01211F00701DBB20CEB02001AD0C1F1F7
:104CC0000805404EEDB2AB42775D3FBFA5EB030E4A
:104CD000FF2646FA0EF637401CF80260012C0CBF86
:104CE0003E43BE43AB420CF8026028D308390B4464
:104CF000DBB28030072B19D9012C4FF0FF3518BFDC
:104D00000025EDB200F180011A46083AD2B2072A16
:104D100001F8805C01F18001F7D8A3F10802C2F329
:104D2000C402013200EBC21003F007033BB1264A74
:104D3000D25C0378012C0CBF134393430370F0BD86
:104D40004589D2432A44CD180189491B12B209B2C0
:104D5000002AF4DBB0F90A509542F0DD0029BEBF0D
:104D60005B181BB20021B0F90870CE18BE42C4BF58
:104D70006B1A1BB2002BE2DDD010802510FB051151
:104D80001248014402F0070001228240012CD2B2F5
:104D90000B440CD18B42D2D011F8010B104301F817
:104DA000010CF7E7CD184189491B09B267E7D243E7
:104DB000D2B28B42C3D011F8010B104001F8010CA4
:104DC000F7E700BF20E1032018E1032028E10320DA
:104DD000F0B5457EBDF81440022D34D0032D00F00F
:104DE0009B80012D37D1D5180289521B12B20029A0
:104DF000C0F29180B0F90A508D4240F38C80002AB5
:104E0000BEBF9B181BB20022B0F90870D618BE4274
:104E1000C4BFAB1A1BB2002B7DDDC810802510FB70
:104E200005224548024401F0070001218140012C80
:104E3000C9B2134475D19A426DD012F8010B0843E0
:104E400002F8010CF7E70589C9432944D5184289BE
:104E5000521B09B212B200295DDBB0F908508D4235
:104E600059DD002ABEBF9B181BB20022B0F90A0010
:104E7000D5188542C4BF831A1BB2002B4BDDC2F389
:104E8000C400DFF8B4C001EBC01112F00702DBB2BE
:104E90000CEB01001AD0C2F10805284EEDB2AB426E
:104EA000775D3FBFA5EB030EFF2646FA0EF63740AF
:104EB0001CF80160012C0CBF3E43BE43AB420CF812
:104EC000016028D3083A1344DBB28030072B19D98C
:104ED000012C4FF0FF3518BF0025EDB200F1800125
:104EE0001A46083AD2B2072A01F8805C01F1800123
:104EF000F7D8A3F10802C2F3C402013200EBC210DA
:104F000003F007033BB10E4AD25C0378012C0CBFBF
:104F1000134393430370F0BD4589C943294409B243
:104F200065E7C943C9B29A42F5D012F8010B0840AF
:104F300002F8010CF7E700BF28E1032020E103207D
:104F400018E1032070470000F8B50D1E0646144610
:104F50001F462DDB00F0DDFBA84229DD002C27DBFE
:104F6000304600F0D9FBA04222DD304600F0C1FB04
:104F700002281ED0032825D0012804D13389E2431A
:104F80001A442C4615B2002C2246B8BFE21DD2109E
:104F9000802112FB01550E49012204F007044B57F2
:104FA00002FA04F464B297420CBF2343A3434B5567
:104FB000F8BD318972890139E4434D1B14442DB287
:104FC00024B2E0E77389013B5B1B25461CB2DAE79C
:104FD00028E1032010B524210446FFF760F820469D
:104FE00010BD000038B5402204460D46802100F077
:104FF000A7FA064B2360FF2384F8213063774FF62E
:10500000FF73E38384F82050204638BDB4840B003E
:1050100002484FF48062002102F0D2BF28E1032051
:1050200013B50B4C2178BFF35B8F11F001010BD14D
:1050300020460191FFF742F8019928B1054801F097
:1050400031F82046FFF73FF8024802B010BD00BF1C
:10505000B8E60320BCE6032007B590F8223043B140
:105060000191FFF7DDFF019903B05DF804EB01F05A
:10507000CDB80B46817F407F012203B05DF804EB81
:1050800002F0DEB938B590F91D30013304460D4603
:105090001DD090F92100012180B202F08EF994F91F
:1050A0001F00002180B202F088F994F9210000214C
:1050B00080B202F082F929462046FFF7CDFF94F92D
:1050C00021000121BDE8384080B202F076B902F03B
:1050D00035FA94F91B1001F05BFD02F02FFA03681A
:1050E00000219B68984702F029FA036829469B68CB
:1050F000984702F023FABDE8384001F050BD0000A7
:10510000F8B521210446FFF7BDFF00212046FFF737
:10511000B9FF7F212046FFF7B5FF22212046FFF788
:10512000B1FF00212046FFF7ADFF07212046FFF722
:10513000A9FF94F91D30294F01332AD094F9210099
:10514000012180B202F039F994F91F00012180B2E7
:1051500002F033F994F92100002180B202F02DF918
:10516000012000F0FFFC4FF48065013D17F8011BA2
:105170002046ADB2FFF770FF002DF6D1012000F000
:10518000F1FC94F921000121BDE8F84080B202F061
:1051900014B9002502F0D2F994F91B1001F0F8FCC3
:1051A00002F0CCF9036840219B68984705F110068E
:1051B000B6B202F0C3F90368795D9B6898476B1C2F
:1051C0009DB2AE42F5D102F0B9F901F0E8FCB6F5B6
:1051D000806F00D1F8BD3546DCE700BF28E1032031
:1051E00038B590F91D300177013304460D46C2767B
:1051F00000F0C98090F91F00012180B202F0CCF8C4
:1052000094F92100012180B202F0C6F894F822300E
:10521000002B00F0A68094F92100012180B202F059
:10522000CCF8FFF7FDFE012100F05AFFFFF7F8FE72
:10523000102100F0C5FFFFF7F3FE002100F064FF2E
:10524000FFF7EEFE00F038FF94F92000012180B254
:1052500002F0A2F894F92000012180B202F0ADF82A
:10526000012001F00FFA94F92000002180B202F031
:10527000A4F80A2001F006FA94F92000012180B276
:1052800002F09BF82046AE21FFF7FCFE2046D52118
:10529000FFF7F8FE20468021FFF7F4FE2046A82104
:1052A000FFF7F0FE20463F21FFF7ECFE2046D3211A
:1052B000FFF7E8FE20460021FFF7E4FE20464021EC
:1052C000FFF7E0FE8D212046FFF7DCFE012D0CBF2D
:1052D000102114212046FFF7D5FE20462021FFF79C
:1052E000D1FE20460021FFF7CDFE2046A121FFF789
:1052F000C9FE2046C821FFF7C5FE2046DA21FFF788
:10530000C1FE20461221FFF7BDFE81212046FFF796
:10531000B9FE012D0CBF9F21CF212046FFF7B2FE21
:10532000D9212046FFF7AEFE012D0CBF2221F1212D
:105330002046FFF7A7FE2046DB21FFF7A3FE20460D
:105340004021FFF79FFE2046A421FFF79BFE204649
:10535000A621FFF797FE2046AF21BDE83840FFF7B2
:1053600091BE94F91D00012180B202F015F894F964
:105370001E00012180B202F00FF894F82230002BB9
:105380003FF462AF47E702F0D9F801F0CBFB5BE7EF
:105390002DE9F04F85B01F46BDF93880BDF83C308F
:1053A000A8EB0209A7EB010AB9F1000FB8BFC9F1D8
:1053B0000009BAF1000FB8BFCAF1000AD14583460F
:1053C0000C46154604DD3A462C4647460D469046A7
:1053D000BC4205DD2A464546904622463C461746D5
:1053E0003E1BB2B20092A8EB050282EAE271A1EB89
:1053F000E271C6F3C03202FA86F64545B4BF012217
:105400004FF0FF32019176100292BC421CDCDBF8B7
:1054100000200393D145D2F81080C7BF2946224609
:105420002A4621465846C047019A039BB61AB1B294
:1054300036B2002E05DA029A1544009A56182DB29B
:1054400036B2013424B2E0E705B0BDE8F08F2DE9B3
:10545000F347BDF82C800768BDF92890CDF800808F
:105460000446FF6916468A461D46B8472368CDF8AC
:10547000008009F1FF323244DF6951462B46204655
:1054800012B2B8472368CDF800809F6932464B4678
:1054900051462046B8476B1E03EB0A012368CDF83E
:1054A00028809D6932464B4609B22046AC4602B080
:1054B000BDE8F047604737B5013B13440468BDF8C9
:1054C000185001951BB2009364690B46A04703B0C6
:1054D00030BD37B5BDF818500468CDE90025013B53
:1054E0000B4464691BB2A04703B030BD2DE9F347FC
:1054F000BDF92890BDF82C80054692460C46CE1882
:10550000B4420BDA2B68CDF800809F6921464B46E8
:10551000524628460134B84724B2F1E702B0BDE84C
:10552000F08713B502680191B0F90E100091546A2A
:10553000B0F90C3000221146A04702B010BD7047F0
:1055400030B54281C2814FF0FF320024054D4261E7
:1055500001224460056001818181046102838276B9
:1055600030BD00BFE8890B002DE9F04F2DED028B17
:105570008DB007460491BDF860100591BDF8641028
:105580000691B0F90C1004989DF86850814252DDE4
:10559000B7F90E1091424EDD062111FB0504002CD7
:1055A00049DD02EBC504002C45DD03EB83030B93BF
:1055B00093B2079308339BB2089100240993052CFA
:1055C0001CBF2C4B0B9A079E16BF1B1900239B5C1C
:1055D0000393049AABB20A9304FB05F313FA82F324
:1055E0001BB204EB020A08EE103AB0460FFA85F936
:1055F0000FFA8AFA039BDB072FD5012D3B681FD1D9
:10560000D3F810B0059B32B251463846D847039BB9
:105610005B0803930A9B01369844099BB6B2B342D8
:105620001FFA88F8E6D1089B013B013413F0FF0311
:1056300064B20893C3D10DB0BDEC028BBDE8F08F0E
:10564000059ACDE9009218EE101AD3F824B00FFA9B
:1056500088F24B463846D847D9E7DDE9052393421F
:10566000D5D0012D3B6803D1D3F810B0069BCAE713
:10567000069AE6E7E4840B0030B50A2985B00446B3
:1056800007D1027E638A03EBC20363820023238275
:1056900021E00D291FD0037E0293C38A0193838AE0
:1056A0000093B0F912200B46B0F91010FFF75CFF21
:1056B000207E238A00EB400103EB4103A17E1BB255
:1056C0000246238239B1B4F90C106FF0050505FBD1
:1056D00000118B42D6DC012005B030BD0182428230
:1056E0007047012938BF012101767047C18281824C
:1056F0007047407E704701F00303B0F90A204376FB
:10570000C907B0F9083059BF8381C2818281C38142
:105710007047B0F90C007047B0F90E0070474FF0B9
:10572000FF33C360704700002DE9F04190F90F305E
:10573000013305460F4606D1FFF772FC3946BDE836
:10574000F04100F063BD01F02BF9154900F0F9FEBE
:10575000002407264FF0010895F90F00002180B2C0
:1057600001F02BFE95F90D0008FA06F1394080B2E0
:1057700001F023FE95F90F00012180B201F01DFE1A
:1057800095F90E00640080B2E4B201F02FFE08B17A
:1057900044F00104013EDFD22046BDE8F08100BFA5
:1057A000188A0B0070B5044690F90C00431C0E4695
:1057B000154616D101F0C2FE217801F0E5F901F09D
:1057C000BDFE036831469B68984701F0B7FE036849
:1057D00029469B68984701F0B1FEBDE8704001F092
:1057E000DEB9002180B201F0E8FD06F07F0120461D
:1057F000FFF79AFF29462046FFF796FF94F90C0021
:105800000121BDE8704080B201F0D7BD38B5044633
:1058100090F90C00431C0D4620D101F08FFE217839
:1058200001F0B2F901F08AFE036829469B689847A7
:1058300001F084FE01F0B3F901F080FE217801222D
:1058400001F09FF901F07AFE03685B699847C5B2E1
:1058500001F074FE01F0A3F9284638BD002180B2A2
:1058600001F0ABFD45F080012046FFF75DFF002110
:105870002046FFF759FF054694F90C00012180B23C
:1058800001F09BFDE8E738B5054690F90C00431C94
:105890000C4628D101F052FE297801F075F901F08B
:1058A0004DFE036821469B68984701F047FE01F0D2
:1058B00076F901F043FE2978022201F062F901F045
:1058C0003DFE03685B699847044601F037FE0368B4
:1058D0005B69984740EA042084B201F02FFE01F092
:1058E0005EF9204638BD002180B201F066FD44F02B
:1058F00080012846FFF718FF00212846FFF714FF14
:10590000002104462846FFF70FFF40EA042495F9DA
:105910000C00012180B2A4B201F04FFDE1E708B50F
:10592000FFF7B1FF40BA80B208BD10B58821044628
:10593000FFF7F5FF8A2120822046FFF7F0FF8C2138
:1059400060822046FFF7EBFF8E21A0822046FFF702
:10595000E6FF9021E0822046FFF7E1FF92212083BD
:105960002046FFF7DCFF942160832046FFF7D7FF36
:105970009621A0832046FFF7D2FF9821E08320469E
:10598000FFF7CDFF9A2120842046FFF7C8FF9C2116
:1059900060842046FFF7C3FF9E21A0842046FFF7C6
:1059A000BEFFE08410BD000038B5FA210446FFF7C1
:1059B0006AFFFC2105022046FFF728FF238AB4F97D
:1059C00012109FED0F0A2843C3EB20225B00C3EBAC
:1059D000E013594302FB02F3B4F914201B135343A1
:1059E0009B1303EBE123A36003EB830380331B12C0
:1059F00007EE903AF8EEE77A87EE800A38BD00BFEE
:105A00000000C84210B50446017090F90C00431C18
:105A100018D100F0C5FF244900F093FD01F08EFD80
:105A200001F080F8D0212046FFF7F0FE582839D148
:105A30002046FFF77AFF20463F22F421FFF7B2FE0F
:105A4000012010BD012180B201F0B7FC94F90C00D7
:105A5000012180B201F0A0FC94F90F30013309D18B
:105A600000F09EFF114900F06CFDFFF7D9FA00F03D
:105A700023FBD7E700F094FF0D4900F062FD94F995
:105A80000F00012180B201F087FC94F90D00012183
:105A900080B201F081FC94F90E00002180B201F087
:105AA0007BFCBFE70020CCE7258A0B002F8A0B0088
:105AB000428A0B0008B5024B1B689B68019308BD26
:105AC0006802030008B5024B1B68DB68019308BD40
:105AD0006802030008B5024B1B681B68019308BDF0
:105AE0002C02030008B5024B1B685B68019308BDDC
:105AF0002C02030008B5024B1B689B68019308BD8C
:105B00002C02030008B5024B1B68DB68019308BD3B
:105B10002C02030008B5024B1B681B69019308BDEA
:105B20002C02030008B5024B1B685B69019308BD9A
:105B30002C02030008B5024B1B681B6B019308BDC8
:105B40002C02030008B5024B1B685B69019308BD7A
:105B50006C02030008B5024B1B685B68019308BD2B
:105B60001802030008B5024B1B68DB68019308BDEF
:105B70001802030008B5024B1B681B69019308BD9E
:105B80001802030008B5024B1B685B69019308BD4E
:105B90001802030008B5024B1B685B6C019308BD3B
:105BA0004802030008B5024B1B685B69019308BDFE
:105BB0006402030008B5024B1B681B6A019308BD11
:105BC0006402030008B5024B1B689B6A019308BD81
:105BD0006402030008B5024B1B68DB68019308BD33
:105BE0003C02030008B5024B1B681B69019308BD0A
:105BF0003C02030008B5024B1B685B69019308BDBA
:105C00003C02030008B5024B1B689B69019308BD69
:105C10003C02030008B5024B1B68DB69019308BD19
:105C20003C02030008B5024B1B681B6A019308BDC8
:105C30003C02030008B5024B1B689B6A019308BD38
:105C40003C02030008B5024B1B681B6C019308BDA6
:105C50003C02030008B5024B1B68DB68019308BDDA
:105C60002802030008B5024B1B689B69019308BD1D
:105C70002802030008B5024B1B68DB69019308BDCD
:105C80002802030008B5024B1B681B6A019308BD7C
:105C90002802030008B5024B1B685B6A019308BD2C
:105CA0002802030008B5024B1B689B6A019308BDDC
:105CB0002802030008B5024B1B68DB6A019308BD8C
:105CC0002802030008B5024B1B681B6B019308BD3B
:105CD0002802030008B5024B1B685B6B019308BDEB
:105CE0002802030008B5024B1B681B6C019308BD1A
:105CF0002802030008B5024B1B681B6D019308BD09
:105D00002802030008B5024B1B689B69019308BD7C
:105D10003802030008B5024B1B68DB69019308BD1C
:105D20003802030008B5024B1B681B6A019308BDCB
:105D30003802030008B5024B1B689B6A019308BD3B
:105D40003802030008B5024B1B681B6B019308BDAA
:105D50003802030008B5024B1B689B6B019308BD1A
:105D60003802030008B5024B1B681B68019308BD8D
:105D70003002030008B5024B1B689B68019308BD05
:105D80003002030008B5024B1B68DB68019308BDB5
:105D90003002030008B5024B1B681B69019308BD64
:105DA0003002030008B5024B1B685B69019308BD14
:105DB0003002030008B5024B1B68DB69019308BD84
:105DC0003002030008B5024B1B681B6A019308BD33
:105DD0003002030008B5024B1B685B6A019308BDE3
:105DE0003002030008B5024B1B681B6C019308BD11
:105DF0003002030008B5024B1B685B6C019308BDC1
:105E00003002030008B5024B1B681B68019308BDF4
:105E10004C02030008B5024B1B681B69019308BDC7
:105E20004C02030008B5024B1B685B69019308BD77
:105E30004C02030008B5024B1B689B69019308BD27
:105E40004C02030008B5024B1B68DB69019308BDD7
:105E50004C02030008B5024B1B681B6A019308BD86
:105E60004C02030008B5024B1B685B6B019308BD35
:105E70006002030008B5024B1B681B6D019308BD4F
:105E80006002030008B5024B1B685B68019308BD04
:105E90002002030008B5024B1B685B69019308BD33
:105EA0002002030008B5034B1B68D3F88830019328
:105EB00008BD00002002030008B5034B1B68D3F89F
:105EC0009430019308BD00002002030008B5024B86
:105ED0001B685B68019308BD4002030008B5024BD4
:105EE0001B689B68019308BD4002030008B5024B84
:105EF0001B68DB68019308BD4002030008B5024B34
:105F00001B681B69019308BD4002030008B5024BE2
:105F10001B685B69019308BD4002030008B5024B92
:105F20001B689B69019308BD4002030008B5024B42
:105F30001B68DB69019308BD4002030008B5024BF2
:105F40001B681B6A019308BD4002030008B5024BA1
:105F50001B689B6A019308BD4002030008B5024B11
:105F60001B681B6B019308BD4002030008B5024B80
:105F70001B685B6B019308BD4002030008B5024B30
:105F80001B681B6C019308BD4002030008B5024B5F
:105F90001B685B6C019308BD4002030008B5024B0F
:105FA0001B68DB6B019308BD4402030008B5024B7C
:105FB0001B681B68019308BD1C02030008B5024B57
:105FC0001B685B68019308BD1C02030008B5024B07
:105FD0001B689B68019308BD1C02030008B5024BB7
:105FE0001B685B6A019308BD1C02030008B5024BE5
:105FF0001B68DB6B019308BD1C02030008B5024B54
:106000001B681B6C019308BD1C02030008B5024B02
:106010001B685B6C019308BD1C02030000224068F2
:106020001146FFF78BBF002240681146FFF79EBF65
:1060300040680022FFF792BF4068002281F0010112
:10604000FFF774BF002340681A461946FFF766BF82
:10605000002340681A461946FFF758BF00224068DF
:106060001146FFF74BBF002240681146FFF736BFCD
:10607000406800220221FFF739BF002340681A461A
:10608000FFF724BF024B03225A60024A1A6070478E
:10609000C4E60320608A0B000021FFF7ABBE00219D
:1060A000FFF7A0BE10B5044608462170FFF782FE38
:1060B00000236360204610BD13B504460078FFF747
:1060C000EEFF58B9207801904FF6FF71FFF74AFEB6
:1060D000019802B0BDE81040FFF7DEBF02B010BD6E
:1060E00013B5044600780191FFF7D9FF019948B92B
:1060F00020780190FFF73EFE019802B0BDE8104005
:10610000FFF7CABF02B010BD13B504460078019175
:10611000FFF7C5FF019948B920780190FFF732FEDB
:10612000019802B0BDE81040FFF7B6BF02B010BD45
:10613000400830B51860002418688842E5B206D9D6
:106140000134082C02D040081860F5E70725024BFF
:106150005B5D137030BD00BF948A0B002DE9F041E8
:1061600088B000230446007802930E461746FFF7D6
:1061700096FF054600BB94F800800146142203A850
:1061800001F01EFF0B232A4603A94046ADF80C3050
:10619000FFF720FE04988DF8075002AB0DF10702BF
:1061A00007FB06F1FFF7C4FF20789DF80710FFF703
:1061B000F1FD2078FFF770FF029808B0BDE8F0818C
:1061C00038B5044600780D46FFF769FF0346D0B99D
:1061D000616899B10C4A12F8010B854202D0013373
:1061E000082BF8D10133DBB20122D9402046FFF75A
:1061F000B5FF2078BDE83840FFF74EBF207829462C
:10620000FFF7C8FDF5E738BD948A0B0008B50078A4
:10621000FFF7C8FDC0B208BD054B02221A60054B4E
:10622000054A9A600020C3E90000FFF72BBE00BFBB
:10623000D8E60320CCE603200000FFFF10B504469B
:1062400001F006FF013823182046834206D9027860
:10625000197800F8011B03F80129F6E710BD70B5A5
:106260000C46911E22291DD8254630B923443022E0
:106270009D4210D205F8012BFAE7B0FBF2F602FBC3
:106280001600C1B2092894BF30315731C9B205F8A0
:10629000011B3046E9E7002320462B70FFF7CEFFB5
:1062A000204670BD0020FCE738B5031E0C4615469D
:1062B0000EDAB3F1004F4FF02D0214BF58421846CA
:1062C00001230A702A461944FFF7C9FF204638BD4A
:1062D0000123F9E710B504460068FFF76FFE20467A
:1062E00010BD10B50446006808B1FFF767FE002333
:1062F000C4E90133236010BD38B504460D4600687B
:106300000131FFF763FE10B1C4E90005012038BD7B
:1063100010B50368044623B143688B4201D30120C2
:1063200010BD2046FFF7E8FF0028F9D0A368002B36
:10633000F5D122681370F2E737B50D461146019288
:106340000446FFF7E5FF019A28B92046FFF7C9FF89
:10635000204603B030BDA2602946206801F022FE2D
:106360002268A3680021D154F2E7002313B5C0E9E5
:10637000003304468360037341B10846019101F084
:1063800067FE019902462046FFF7D6FF204602B07D
:1063900010BD884210B5044605D00B682BB18A6841
:1063A0001946FFF7C9FF204610BDFFF79AFFFAE72D
:1063B00010B500230446C0E9003383600373FFF780
:1063C000E8FF204610BD13B5044659B108460191B7
:1063D00001F03EFE019902462046FFF7ADFF204640
:1063E00002B010BDFFF77DFFF9E710B504468AB093
:1063F0000023C4E90033A3602373084601A9FFF713
:1064000053FF01A92046FFF7DEFF20460AB010BD6A
:1064100070B505460E4609B9002070BD6AB18468A2
:1064200014442146FFF774FF0028F5D02868AB68B4
:106430003146184401F004FEAC600120EDE713B5CD
:106440000446084651B1019101F002FE019902464D
:10645000204602B0BDE81040FFF7DABF02B010BD21
:1064600007B500238DF80410012201A98DF805302D
:10647000FFF7CEFF03B05DF804FB10B58A6809682A
:106480000446FFF7C5FF10B92046FFF72AFF204654
:1064900010BD13B5044629B92046FFF722FF204658
:1064A00002B010BD0846019101F0D2FD01990246EB
:1064B0002046FFF7ADFF0028EED0F0E702480023AA
:1064C0000360FFF767BB00BFDCE60320F8B50646B4
:1064D0000D468F180024BD420CD0336815F8011BFF
:1064E0009B6830469847031E01DB1C44F3E7002CF1
:1064F00008BF1C462046F8BD13B50446084659B1EE
:10650000019101F0A5FD23680199DB680246204650
:1065100002B0BDE81040184702B010BD08B5FFF743
:10652000EBFF08BD03689B68184738B50D21054689
:10653000FFF7F8FF0A2104462846FFF7F3FF20443F
:1065400038BD38B50546FFF7D7FF04462846FFF7A4
:10655000ECFF204438BD30B58BB00023012A8DF804
:10656000243098BF0A2209AC0D46B1FBF2F101FBC1
:10657000125303F0FF03092B94BF30333733DBB2E0
:10658000AA4204F8013DEFD92146FFF7B5FF0BB051
:1065900030BD2DE9F04186B000AF05460E46381DEE
:1065A000142114463B60FFF719FD13280ED8391D3E
:1065B0002846FFF7A1FF04461EB12846FFF7B5FFA6
:1065C000044420461837BD46BDE8F08100F10803B9
:1065D00023F00703E846ADEB030D2246411C3B6860
:1065E0006846FFF7FBFC69462846FFF785FF04462F
:1065F000C546E1E710B50446FFF7C4FAE06023683A
:1066000020465B699847002808DAFFF7BBFAE36881
:10661000C01AA3689842F2D34FF0FF3010BD0000BB
:1066200038B50D4607490446FFF79FFE2846FFF799
:10663000E1FF002804DBC1B22046FFF711FFF5E7B8
:10664000204638BD2F820B00014B024A1A6070476A
:10665000E0E60320A48A0B00024B1A68024B1A6082
:10666000704700BF28E50320E4E603208A4210B506
:1066700007D0441A0298C01A4443501A94FBF0F011
:10668000184410BD0021FFF705BC0000014B00229B
:106690009A607047E8E60320014B1860704700BF1E
:1066A0002CE5032008B50B4B43B100F079F90368E2
:1066B0001B699847002801DDAFF30080064B43B10A
:1066C00000F0FCFE03681B699847002801DDAFF36A
:1066D000008008BD000000000000000008B5FFF7C2
:1066E000E1FFFFF74FFA014B186008BD40E70320B8
:1066F0000548064A064908B5121A01F053FC054B35
:10670000054A1A6008BD00BF00F4032004F403200A
:10671000348E0B0000F403201E1C279A07B50023BB
:1067200000931A466FF07701FFF7C6FB03B05DF8E0
:1067300004FB000007B543880A2B08D0502B0BD16F
:10674000094B1B684BB103B05DF804EB1847FFF72A
:10675000E5FF03B05DF804FB002300931A466FF0D9
:106760007701FFF7A9FBF4E7FCE6032010B5124818
:106770000021FFF74BFC114B1A68114B9A42114B49
:106780000CBF012200221A7001D0FFF7B1FFFFF702
:10679000E1F9044601F01CFC0B4B13B12046AFF3AA
:1067A000008000210848FFF7F9FBBDE810400748CA
:1067B0000021FFF777BB00BF99660B0000F40320B0
:1067C0001E1C279AF8E603200000000035670B0026
:1067D000704710B518210446FDF761FC204610BD36
:1067E000F0B5037D062B8DB00E4600F104074FF087
:1067F000000412D000F1080515F8011D0A223046E8
:10680000FFF7A9FEAF42044419D0002CF4D02E218A
:106810003046FFF787FE0444EEE72F236A463946E9
:106820000A208DF80040FFF7BDF9684601F010FC22
:1068300033680246DB68694630469847044620467E
:106840000DB0F0BD10B5054B0446112240F8043BD5
:10685000002101F0B5FB204610BD00BFCC8A0B0023
:106860000346074A10B543F8042B01F1100251F812
:10687000044B43F8044B9142F9D10A781A7010BDC9
:10688000CC8A0B00037D042B04D14068003818BF6C
:1068900001207047062B07D143683BB983682BB9A9
:1068A000C3681BB90069F1E70020704701207047F9
:1068B00010B59DF8084044EA032343EA024242EA45
:1068C000016104234160037510BD000007B5064B4C
:1068D0000360CB7800938B784A780978FFF7E8FF5C
:1068E00003B05DF804FB00BFCC8A0B004174704715
:1068F0007047704708B50021007CFFF79BFA40EA1B
:10690000E07008BD08B50121007CFFF793FA40EA6A
:10691000E07008BD08B5007CFFF784FA20EAE0705B
:1069200008BD08B5007CFFF775FA20EAE07008BDE5
:1069300013B50446007C0191FFF774FA0028019911
:1069400001DC607C20B1207CFFF77CFA20EAE0705B
:1069500002B010BD007CFFF77DBA10B514210446CB
:10696000FDF79DFB204610BD10B54FF47A73044629
:1069700008460021C4E90113044B2360012320745D
:1069800063741146FFF73EFA204610BDE08A0B0003
:1069900010B514220446002101F012FB204610BD60
:1069A00010B50F4C88B003A8FFF7F2FF2178BFF3B2
:1069B0005B8F11F001010FD120460191FDF77EFBA5
:1069C000019948B103AA0748FFF7CEFF2046FDF71B
:1069D0007AFB054801F0E0FA024808B010BD00BF9C
:1069E00000E7032004E70320F1680B0070474174BF
:1069F000704708B5007CFFF71DF920EAE07008BD7C
:106A000008B5007CFFF7EEF820EAE07008BD08B595
:106A1000007CFFF7F7F840EAE07008BD08B5007C9D
:106A2000FFF7E8F840EAE07008BD007CFFF7F2B835
:106A300037B5457C04462DB1207C03B0BDE830401D
:106A4000FFF7C8B8007C0191FFF7F4F8002801991E
:106A5000F2DC284603B030BD10B514210446FDF722
:106A60001EFB204610BD000010B54FF47A7304469B
:106A7000084611460022C4E90123044B2360012388
:106A800020746374FFF7DEF8204610BD108B0B00F6
:106A90007047F8B5064615460C468F18BC4206D01E
:106AA000336814F8011B9B6830469847F6E7284680
:106AB000F8BD007C0022FFF7E5B8007C0021FFF75D
:106AC000E9B8007C0021FFF7EDB8007C0021FFF75A
:106AD000F1B8007C0021FFF7F5B810B51421044689
:106AE000FDF7DDFA204610BD38B5044615464FF4D3
:106AF0007A730022C4E90123094B217408462360FC
:106B00002946FFF7EFF8BF3008D16B69DB0705D5E1
:106B10006868FFF753FAE868FFF750FA204638BD77
:106B2000408B0B000023007C1A461946FFF792B8F1
:106B30007FB500221423CDE90122ADF804300B7893
:106B40008DF808304B680393CB680493007C0B7A74
:106B5000059301A9FFF7CEF807B05DF804FB1FB558
:106B6000003B8DF800104FF06401039118BF012322
:106B7000694601928DF80830FFF7DAFF05B05DF83D
:106B800004FB0123FFF7EBBF007C0022FFF76AB88C
:106B9000C9B2FFF7F9BF007C0022FFF76BB80121F3
:106BA000FFF7F9BF13B503688DF80710DC6B0122FE
:106BB0004FF0FF330DF10701A04702B010BD10B434
:106BC0000368DC6B4FF0FF33A4465DF8044B60476D
:106BD00013B5134602688DF80710D46B0DF1070149
:106BE0000122A04702B010BD10B54369B3F886205A
:106BF000B3F884309A42044608D06369B3F884201D
:106C0000511CA3F884101344187910BD03681B6944
:106C100098470028F1D14FF0FF30F6E770474369FD
:106C20001868C043C00F704770470000064B994278
:106C300010B500F10C0405D0084600F0A5FC0028B2
:106C400008BF0024204610BD9C8A0B0010B5AC2163
:106C50000446FDF724FA204610BDAC21FDF71FBA0B
:106C60002DE9F0414FF0000886B01C46C0F80480C2
:106C700005460E4617464146102202A801F0A0F92B
:106C8000631C09D04FF47A73B4FBF3F203FB124494
:106C9000CDE902285C4304946869102300930068DE
:106CA00002AB41F2050240F6FF71FFF72BF8002816
:106CB00007DAFFF79BF903686B60002006B0BDE8B8
:106CC000F0816869002300683A463146FFF73AF8D8
:106CD000031EEEDB1846F1E730B587B0044601AD80
:106CE0006846FFF7F3FD0FCD04340FC42B68237003
:106CF00007B030BD70B54D69054B04468C3544F87E
:106D0000043B06460FCD0FC42B682370304670BD80
:106D1000CC8A0B002DE9F0439846036893B00D46EA
:106D20000024DB6A06461746984728466B462246EB
:106D300021460094FEF7C6FE0546002863D1009B5D
:106D4000002B4BD05B69002B48D006A8FFF77AFDDB
:106D5000009B5C696378022B04D1211D06A8FFF714
:106D6000BBFF26E00A2B24D11122294601A801F0FD
:106D700027F9A368002B38D004F108030DF1040CA7
:106D8000183418685968624603C20833A34294460F
:106D9000F7D1062301A90CA88DF81430FFF760FD88
:106DA0000DF1340CBCE80F0007AC0FC4DCF8003068
:106DB000237006A8FFF766FD80B1336807ADD3F8EE
:106DC0002090124B0C930FCD0DAC0FC42B68237089
:106DD0003A4643460CA93046C84705460098FEF798
:106DE00069FE284613B0BDE8F083E368002BC3D1E9
:106DF0004FF6FF70D4F81090FEF7DCFE8145BBD152
:106E000004F11401AAE72546E8E700BFCC8A0B008D
:106E100038B543691A68002A054610DAB3F88620A7
:106E2000B3F884309A420AD103681B699847044634
:106E300028B92B682846DB6A9847204638BD0120D0
:106E4000FCE710B54369B3F88620B3F884309A4262
:106E5000044605D06369B3F884201344187910BD43
:106E600003681B6998470028F4D14FF0FF30F6E71C
:106E7000F8B543691746B3F88620B3F884309A42D0
:106E800005460E4616D06969B1F88430B1F88640DF
:106E9000E41ABC4228BF3C4604332246194430461B
:106EA00001F080F86A69B2F884302344A2F8843093
:106EB0002046F8BD03681B6998470028E3D14FF0CE
:106EC000FF34F5E742690023A2F884304269A2F852
:106ED000863070472DE9F0411F4603680C46DB6A97
:106EE0008AB0054616469847237DD5F81480042BB2
:106EF0000CBF02200A2006220121FEF72BFFC8F852
:106F000000006B691B68002B08DA2B682846DB6AD7
:106F10000024984720460AB0BDE8F0812846FFF7D4
:106F2000D1FFB7B1002303A9F8B20393ADF8103035
:106F3000FEF708FE0028E8D1686906230093006880
:106F400003AB41F20B0240F6FF71FEF7DBFE0028B7
:106F5000DBD11C22002103A801F032F8237D042B91
:106F60001DD14FF407733046ADF80C30FEF72AFE02
:106F7000ADF80E006068FEF71DFE04906B691C22E0
:106F8000186803A9FEF7CEFE0028BED104340FCC4A
:106F90006D698C350FC523682B700124BAE740F664
:106FA0001C233046ADF80C30FEF70CFE05AEADF8F4
:106FB0000E00231D04F1140718685968324603C2F5
:106FC0000833BB421646F7D1D8E7000030B5426916
:106FD000B2F886308BB004462BB1B2F884209A42C6
:106FE00001D1FFF76FFF61690868002818DBB1F86D
:106FF00086507F2D14D804310823C5F1800229441E
:10700000FEF798FE002813DD6369B3F886200AB9FD
:10701000A3F884206369B3F886201044A3F886009F
:107020006369B3F88600B3F88430C01A0BB030BD82
:10703000FEF7DCFF03680B2BF2D0FEF7D7FF0368E7
:107040000B2BEDD020230025CDE90235FEF7CEFF36
:1070500003680193084B0949009302AA2B4632208A
:10706000FEF708FF63691868FEF754FE63694FF086
:10707000FF321A60D4E700BF678B0B00608B0B00F8
:1070800010B5436904461868002801DBFEF742FE8C
:1070900063694FF0FF321A606069112200218C3061
:1070A00000F08EFF2046BDE81040FFF70BBF10B583
:1070B000002304460160C0F884308830FFF7C2FB2B
:1070C000204610BD73B500234FF47A72C0E9013237
:1070D0000E4A0361026043610446AC200191FCF753
:1070E000DAFF051E05F10C0608D00123C5E90133BE
:1070F000074B01992B603046FFF7D9FF2046C4E9C2
:107100000565FFF7DFFE02B070BD00BF9C8B0B0072
:10711000808B0B0010B54FF0FF310446FFF7D2FF14
:10712000204610BD10B504460068002801DBFEF7BC
:10713000F1FD204610BD0C30FFF7F4BF002240687F
:107140001146FEF7DBBE002240681146FEF7F6BE90
:10715000002240681146FEF709BF40680022FEF792
:10716000FDBE4068002281F00101FEF7DFBE002372
:1071700040681A461946FEF7D1BE002340681A46F9
:107180001946FEF7C3BE002240681146FEF7A6BEB0
:10719000406800220221FEF7A9BE002340681A467B
:1071A000FEF794BE024B04225A60024A1A607047EE
:1071B00018E70320E88B0B00002340681A46FEF70F
:1071C00085BE406800220221FEF790BE0022406882
:1071D0001146FEF783BE002240681146FEF78EBEC0
:1071E000002340681A461946FEF790BE0023406807
:1071F0001A461946FEF792BE40680021FEF7BEBE51
:1072000040680021FEF7C2BE4068002281F0010103
:10721000FEF78CBE40680022FEF7A0BE0022406848
:107220001146FEF7A3BE002240681146FEF786BE57
:107230002DE9F04395B014460D460746FFF702FBD3
:1072400000211C220DA8009100F0BAFE40230C93EF
:1072500020466B460CAA0021FEF734FC04460028A9
:107260004BD1024601216868FEF748FE02218046A4
:1072700022466868FEF742FE009E81462146002EA7
:107280003BD0002939D17368022B03D00A2B11D0CF
:10729000F669F4E7B8F1000FFAD0716906A8043175
:1072A00007ADFFF713FB0FCD3C1D0FC42B682370F8
:1072B0004146EDE7B9F1000FEAD07469102201A848
:1072C00000F07EFE06238DF8143001AD04F10803B2
:1072D0001834186859682A4603C20833A342154671
:1072E000F7D101A906A807ADFFF7BAFA0FCD3C1DEB
:1072F0000FC42B6823704946CAE70098FEF7DAFBF3
:10730000384615B0BDE8F083024B034A1A600022EC
:107310005A60704720E70320248C0B00232813B504
:1073200002D9002002B010BDA0F10B03022B1AD825
:10733000174C2178BFF35B8F11F001010BD1204670
:107340000191FCF7BBFE019928B11248FEF7AAFE95
:107350002046FCF7B8FE0F4B1878FEF733FD0028E7
:10736000DFD10120DEE7012809D800F0E7F800218D
:10737000007CFEF7AFFC80F00100C0B2D2E7093814
:107380000128EED800F09AF8007CFEF74BFCF2E7FB
:10739000B8E60320BCE60320232838B504460D4692
:1073A0000AD8FF2908D0FFF7B9FF28B1294620469F
:1073B000BDE83840FEF79EBB38BD38B504460D46E3
:1073C000FEF7A0FBFF2810D0062804D84D2323FA8F
:1073D00000F0C30709D42046FFF7A0FF28B12946D3
:1073E0002046BDE83840FEF795BB38BD10B50446D1
:1073F000FEF788FB031FDBB2012B08D92046FFF7FD
:107400008DFF20B12046BDE81040FEF78BBB002069
:1074100010BD0D2810B504469CBF0E34A4B2204602
:10742000FFF77CFF50B103212046FEF75BFB0328EA
:1074300004D12046BDE81040FEF77CBB002010BD03
:107440002DE9F04190461F46072406460D46C4F13B
:107450000701B8F1000F12D147FA01F101F0010163
:107460003046FFF7AAFF01212846FFF7A6FF0021BB
:107470002846FFF7A2FF013CE9D2BDE8F08147FAB8
:1074800004F1EBE77047000038B5044614252A469E
:10749000002100F095FD25804025074925812846DB
:1074A000258200F06FF804496060284600F06AF811
:1074B000E060204638BD00BF588C0B0030B50E4D43
:1074C0002978BFF35B8F11F0010487B011D12846F2
:1074D000FCF7F4FD68B101A8FFF7D6FF01AA214629
:1074E0000648FFF7C1FA2846FCF7EDFD044800F016
:1074F00053FD024807B030BD28E703202CE70320E6
:1075000085740B007047000038B50A4B03600123F7
:10751000044643610849202000F034F820256060CB
:107520000549A560284600F02DF8C4E9030520466A
:1075300038BD00BF18000100588C0B0030B50E4D4F
:107540002978BFF35B8F11F0010487B011D1284671
:10755000FCF7B4FD68B16846FFF7D6FF6A462146DE
:107560000648FFF7C1FA2846FCF7ADFD044800F0D5
:1075700013FD024807B030BD44E7032048E703206D
:1075800005750B00FCF789BD014900F0F9B800BF93
:10759000748C0B007FB500241023CDE902340368FE
:1075A00015469E6912686B46CDE90044B0479DF8C8
:1075B000043003F00603062B03BF009B2B60012061
:1075C000204604B070BD0098904214BF01200620F0
:1075D0007047000010B5034B0360044600F0CDF87F
:1075E000204610BDB48C0B0010B50446FFF7F2FF27
:1075F00020460821FCF753FD204610BD2DE9F0413F
:107600001F46DDE90834DDF8188098450646154622
:1076100007D1079900F0B4F818B165710020BDE8F2
:10762000F0813946304600F0ABF80028F6D001234F
:10763000C4F800802571A371F0E738B515461C46E3
:1076400000F09EF820B10823E36006232560237133
:1076500038BD73B505460C4601921E4600F090F801
:1076600050B9032E08D82368019A5B692946204641
:1076700002B0BDE87040184702B070BD10B5034BB2
:1076800003600446FFF7A6FF204610BD148D0B00D3
:1076900010B50446FFF7F2FF20460C21FCF7FFFC73
:1076A000204610BDF7B5089F974205460E46144682
:1076B0000AD0A86802680897156A31462246AC4687
:1076C00003B0BDE8F04060471946019300F058F858
:1076D000019B0028EDD0062003B0F0BD2DE9F14F4D
:1076E0000D461946DDE90A4BDDE90CA68146174631
:1076F000984600F045F890B1002D3460377109DBF1
:1077000061198A450CBF06210121B171002001B029
:10771000BDE8F08F0235F9D10123B371F6E7544586
:1077200006D15946484600F02BF808B17771EDE7CD
:10773000D9F808000368CDE90CA6CDE90A4BDC694D
:107740003A4643462946A44601B0BDE8F04F60479B
:107750002DE9F04107460C4615461E46FFF76DFF22
:1077600048B9B86803689F692A4633462146BC4633
:10777000BDE8F0416047BDE8F081704700207047E8
:10778000814208B50ED0406803782A2B0CD0496896
:107790000B782A2B08BF013100F048FCB0FA80F0CA
:1077A000400908BD0120FCE70020FAE781F0004114
:1077B00002E000BF83F0004330B54FEA41044FEAD6
:1077C000430594EA050F08BF90EA020F1FBF54EA71
:1077D000000C55EA020C7FEA645C7FEA655C00F00D
:1077E000E2804FEA5454D4EB5555B8BF6D420CDDDE
:1077F0002C4480EA020281EA030382EA000083EA61
:10780000010180EA020281EA0303362D88BF30BD00
:1078100011F0004F4FEA01314FF4801C4CEA113156
:1078200002D0404261EB410113F0004F4FEA0333B5
:107830004CEA133302D0524263EB430394EA050F40
:1078400000F0A780A4F10104D5F1200E0DDB02FAAF
:107850000EFC22FA05F2801841F1000103FA0EF243
:10786000801843FA05F359410EE0A5F120050EF109
:10787000200E012A03FA0EFC28BF4CF0020C43FA3A
:1078800005F3C01851EBE37101F0004507D54FF047
:10789000000EDCF1000C7EEB00006EEB0101B1F597
:1078A000801F1BD3B1F5001F0CD349085FEA3000DD
:1078B0004FEA3C0C04F101044FEA445212F5800FE8
:1078C00080F09A80BCF1004F08BF5FEA500C50F185
:1078D000000041EB045141EA050130BD5FEA4C0C68
:1078E000404141EB0101013C28BFB1F5801FE9D2C5
:1078F00091F0000F04BF01460020B1FA81F308BFE8
:107900002033A3F10B03B3F120020CDA0C3208DDB3
:1079100002F1140CC2F10C0201FA0CF021FA02F18E
:107920000CE002F11402D8BFC2F1200C01FA02F1FE
:1079300020FA0CFCDCBF41EA0C019040E41AA2BF23
:1079400001EB0451294330BD6FEA04041F3C1CDAEB
:107950000C340EDC04F11404C4F1200220FA04F00B
:1079600001FA02F340EA030021FA04F345EA0301B5
:1079700030BDC4F10C04C4F1200220FA02F001FA77
:1079800004F340EA0300294630BD21FA04F02946F9
:1079900030BD94F0000F83F4801306BF81F4801192
:1079A0000134013D4EE77FEA645C18BF7FEA655C05
:1079B00029D094EA050F08BF90EA020F05D054EAD7
:1079C000000C04BF1946104630BD91EA030F1EBFDC
:1079D0000021002030BD5FEA545C05D140004941E0
:1079E00028BF41F0004130BD14F580043CBF01F5D3
:1079F000801130BD01F0004545F0FE4141F47001B9
:107A00004FF0000030BD7FEA645C1ABF1946104693
:107A10007FEA655C1CBF0B46024650EA013406BF94
:107A200052EA033591EA030F41F4002130BD00BF53
:107A300090F0000F04BF0021704730B54FF4806410
:107A400004F132044FF000054FF0000150E700BF91
:107A500090F0000F04BF0021704730B54FF48064F0
:107A600004F1320410F0004548BF40424FF00001DD
:107A70003EE700BF42004FEAE2014FEA31014FEA20
:107A800002701FBF12F07F4393F07F4F81F060516F
:107A9000704732F07F4208BF704793F07F4F04BFBA
:107AA00041F40021704730B54FF4607401F0004597
:107AB00021F000411CE700BF50EA010208BF7047F7
:107AC00030B54FF000050AE050EA010208BF7047E8
:107AD00030B511F0004502D5404261EB41014FF451
:107AE000806404F132045FEA915C3FF4D8AE4FF059
:107AF00003025FEADC0C18BF03325FEADC0C18BF3C
:107B0000033202EBDC02C2F1200300FA03FC20FA8C
:107B100002F001FA03FE40EA0E0021FA02F11444D9
:107B2000BDE600BF70B54FF0FF0C4CF4E06C1CEAF2
:107B300011541DBF1CEA135594EA0C0F95EA0C0F63
:107B400000F0DEF82C4481EA030621EA4C5123EAD6
:107B50004C5350EA013518BF52EA033541F4801105
:107B600043F4801338D0A0FB02CE4FF00005E1FBB8
:107B700002E506F00042E0FB03E54FF00006E1FB02
:107B800003569CF0000F18BF4EF0010EA4F1FF0445
:107B9000B6F5007F64F5407404D25FEA4E0E6D4185
:107BA00046EB060642EAC62141EA55514FEAC52096
:107BB00040EA5E504FEACE2EB4F1FD0C88BFBCF512
:107BC000E06F1ED8BEF1004F08BF5FEA500E50F1C3
:107BD000000041EB045170BD06F0004646EA010189
:107BE00040EA020081EA0301B4EB5C04C2BFD4EBBB
:107BF0000C0541EA045170BD41F480114FF0000EB4
:107C0000013C00F3AB8014F1360FDEBF002001F021
:107C1000004170BDC4F10004203C35DA0C341BDC9B
:107C200004F11404C4F1200500FA05F320FA04F06D
:107C300001FA05F240EA020001F0004221F00041A1
:107C400010EBD37021FA04F642EB06015EEA430E14
:107C500008BF20EAD37070BDC4F10C04C4F1200544
:107C600000FA04F320FA05F001FA04F240EA0200F7
:107C700001F0004110EBD37041F100015EEA430EC8
:107C800008BF20EAD37070BDC4F1200500FA05F2E8
:107C90004EEA020E20FA04F301FA05F243EA020367
:107CA00021FA04F001F0004121FA04F220EA020076
:107CB00000EBD3705EEA430E08BF20EAD37070BDBC
:107CC00094F0000F0FD101F00046400041EB01019C
:107CD00011F4801F08BF013CF7D041EA060195F07E
:107CE000000F18BF704703F00046520043EB030338
:107CF00013F4801F08BF013DF7D043EA0603704725
:107D000094EA0C0F0CEA135518BF95EA0C0F0CD02F
:107D100050EA410618BF52EA4306D1D181EA030175
:107D200001F000414FF0000070BD50EA410606BF6F
:107D30001046194652EA430619D094EA0C0F02D1B4
:107D400050EA013613D195EA0C0F05D152EA0336F9
:107D50001CBF104619460AD181EA030101F0004117
:107D600041F0FE4141F470014FF0000070BD41F060
:107D7000FE4141F4780170BD70B54FF0FF0C4CF43A
:107D8000E06C1CEA11541DBF1CEA135594EA0C0F59
:107D900095EA0C0F00F0A7F8A4EB050481EA030EA6
:107DA00052EA03354FEA013100F088804FEA03338D
:107DB0004FF0805545EA131343EA12634FEA02225B
:107DC00045EA111545EA10654FEA00260EF000411C
:107DD0009D4208BF964244F1FD0404F5407402D26E
:107DE0005B084FEA3202B61A65EB03055B084FEAFF
:107DF00032024FF480104FF4002CB6EB020E75EBFC
:107E0000030E22BFB61A754640EA0C005B084FEA23
:107E10003202B6EB020E75EB030E22BFB61A7546A0
:107E200040EA5C005B084FEA3202B6EB020E75EBEB
:107E3000030E22BFB61A754640EA9C005B084FEA63
:107E40003202B6EB020E75EB030E22BFB61A754670
:107E500040EADC0055EA060E18D04FEA051545EA5F
:107E600016754FEA06164FEAC30343EA52734FEA08
:107E7000C2025FEA1C1CC0D111F4801F0BD141EA81
:107E800000014FF000004FF0004CB6E711F4801FE6
:107E900004BF01430020B4F1FD0C88BFBCF5E06FC6
:107EA0003FF6AFAEB5EB030C04BFB6EB020C5FEAD6
:107EB000500C50F1000041EB045170BD0EF0004E2B
:107EC0004EEA113114EB5C04C2BFD4EB0C0541EA5D
:107ED000045170BD41F480114FF0000E013C90E65A
:107EE00045EA060E8DE60CEA135594EA0C0F08BF1E
:107EF00095EA0C0F3FF43BAF94EA0C0F0AD150EA1D
:107F000001347FF434AF95EA0C0F7FF425AF1046AF
:107F100019462CE795EA0C0F06D152EA03353FF4D7
:107F2000FDAE1046194622E750EA410618BF52EA54
:107F300043067FF4C5AE50EA41047FF40DAF52EA28
:107F400043057FF4EBAE12E74FEA410212F500124F
:107F500015D211D56FF47873B3EB625212D94FEA90
:107F6000C12343F0004343EA505311F0004F23FA7A
:107F700002F018BF404270474FF00000704750EACF
:107F8000013005D111F0004008BF6FF0004070478C
:107F90004FF00000704700BF002301461A46184604
:107FA00000F05EB80A44914200F1FF3300D17047FF
:107FB00010B511F8014B03F8014F9142F9D110BDF2
:107FC00002440346934200D1704703F8011BF9E7CE
:107FD00038B5104B1D68AB6B0446B3B91820FDF7DC
:107FE000E5FF0246A86320B90B4B0C484221FEF77F
:107FF00005F80B490B4BC0E900130B4B83600B23B7
:10800000838100210120C2E90401AB6B00221C61C5
:108010005A6138BD2CE503204D8D0B00648D0B009B
:108020000E33CDAB34126DE6ECDE050010F8012BFB
:1080300011F8013B012A28BF9A42F7D0D01A7047A5
:10804000034611F8012B03F8012B002AF9D17047E0
:10805000034613F8012B002AFBD1181A0138704788
:108060002DE9F843DFF8B8800646D8F800001F462F
:108070000D46914600F056F8254B1C6834B9254C46
:108080001C60254B13B11B68C4F8883063681F2B34
:1080900007DDD8F8000000F047F84FF0FF30BDE8EA
:1080A000F8834EB3D4F8880088B91C4B23B9D8F8AC
:1080B000000000F038F8F0E74FF48470FDF776FF29
:1080C0000028F4D00023C0E94033C4F88800636876
:1080D00040F8239001229A4000EB8301D0F8003150
:1080E0001343C0F80031022EC1F8807002BFD0F8EF
:1080F00004311343C0F804316368D8F800005A1CF7
:108100000233626044F8235000F00EF80020C6E706
:10811000E8E703205CE7032000000000AD5F0B00F0
:1081200090E50320704770477047000021400B0026
:108130005D400B0085400B0089400B0000000000F3
:1081400043616C6C206F6E20707572652076697269
:108150007475616C004E6F204368616E6765202DF9
:108160002043616E63656C6C696E6720434D440A01
:10817000007B226F6E223A747275652C22736174D3
:10818000223A002C22627269223A002C226875651C
:10819000223A007B226F6E223A66616C73657D0025
:1081A00053656E64696E6720436F6D6D616E642008
:1081B000746F2048756500505554202F6170692FE9
:1081C000002F6C69676874732F002F737461746576
:1081D00020485454502F312E3100486F73743A2088
:1081E00000436F6E74656E742D4C656E6774683AEB
:1081F0002000436F6E74656E742D547970653A205B
:10820000746578742F706C61696E3B63686172731A
:1082100065743D5554462D380046726F6D20487583
:1082200065005377697463684F4E202569200A0002
:108230003C3F786D6C2076657273696F6E3D2231BC
:108240002E302220656E636F64696E673D227574FF
:10825000662D38223F3E3C733A456E76656C6F70F2
:108260006520786D6C6E733A733D22687474703A51
:108270002F2F736368656D61732E786D6C736F61FA
:10828000702E6F72672F736F61702F656E76656CDD
:108290006F70652F2220733A656E636F64696E6735
:1082A0005374796C653D22687474703A2F2F736330
:1082B00068656D61732E786D6C736F61702E6F726F
:1082C000672F736F61702F656E636F64696E672FC0
:1082D000223E3C733A426F64793E3C753A53657472
:1082E00042696E617279537461746520786D6C6E49
:1082F000733A753D2275726E3A42656C6B696E3ADF
:10830000736572766963653A626173696365766500
:108310006E743A31223E3C42696E617279537461E7
:1083200074653E313C2F42696E6172795374617499
:10833000653E3C2F753A53657442696E617279539C
:10834000746174653E3C2F733A426F64793E3C2FF2
:10835000733A456E76656C6F70653E00504F5354AE
:10836000202F75706E702F636F6E74726F6C2F623A
:10837000617369636576656E743120485454502F7B
:10838000312E3100436F6E74656E742D54797065B3
:108390003A20746578742F786D6C3B206368617245
:1083A0007365743D7574662D3800534F41504143D9
:1083B00054494F4E3A202275726E3A42656C6B6991
:1083C0006E3A736572766963653A62617369636573
:1083D00076656E743A312353657442696E617279C1
:1083E00053746174652200436F6E6E656374696FC8
:1083F0006E3A206B6565702D616C69766500496F1A
:10840000544E6574776F726B002569430A002569C5
:10841000460A0057617465720A4E656564656400BA
:108420003139322E3136382E312E33300031393257
:108430002E3136382E312E3331003139322E31364D
:10844000382E312E3332003139322E3136382E313A
:108450002E3333003139322E3136382E312E33342B
:10846000004D516C5A7A69524F30576169354D73DE
:108470004D486C6C3878415541517177383551729F
:108480007238744D3337463354003139322E313619
:10849000382E312E350000002C010000180000009D
:1084A000F40100002C01000050000000000000005A
:1084B00000000000454F0B00D54F0B0079560B0014
:1084C000CD640B00494F0B0091530B00D14D0B00B5
:1084D000614C0B004F540B00ED540B0023550B0067
:1084E0003F550B0000000000003E5B4F5B3E3E6BC3
:1084F0004F6B3E1C3E7C3E1C183C7E3C181C577D3E
:10850000571C1C5E7F5E1C00183C1800FFE7C3E789
:10851000FF0018241800FFE7DBE7FF30483A060E9B
:108520002629792926407F050507407F05253F5AE2
:108530003CE73C5A7F3E1C1C08081C1C3E7F142252
:108540007F22145F5F005F5F06097F017F006689FD
:10855000956A606060606094A2FFA29408047E0443
:108560000810207E201008082A1C08081C2A080869
:108570001E101010100C1E0C1E0C30383E38300629
:108580000E3E0E06000000000000005F0000000725
:10859000000700147F147F14242A7F2A1223130853
:1085A000646236495620500008070300001C22412F
:1085B000000041221C002A1C7F1C2A08083E0808D3
:1085C0000080703000080808080800006060002083
:1085D000100804023E5149453E00427F4000724966
:1085E0004949462141494D331814127F102745450A
:1085F00045393C4A49493141211109073649494920
:1086000036464949291E000014000000403400008D
:1086100000081422411414141414004122140802F6
:10862000015909063E415D594E7C1211127C7F4969
:108630004949363E414141227F4141413E7F4949BE
:1086400049417F090909013E414151737F080808EA
:108650007F00417F41002040413F017F08142241BB
:108660007F404040407F021C027F7F0408107F3E15
:108670004141413E7F090909063E4151215E7F0982
:10868000192946264949493203017F01033F4040E9
:10869000403F1F2040201F3F4038403F63140814D4
:1086A0006303047804036159494D43007F4141410C
:1086B0000204081020004141417F040201020440ED
:1086C00040404040000307080020545478407F2871
:1086D0004444383844444428384444287F38545467
:1086E000541800087E090218A4A49C787F0804048A
:1086F0007800447D40002040403D007F1028440029
:1087000000417F40007C047804787C0804047838B9
:1087100044444438FC1824241818242418FC7C08E9
:10872000040408485454542404043F44243C404066
:10873000207C1C2040201C3C4030403C4428102819
:10874000444C9090907C4464544C44000836410062
:108750000000770000004136080002010204023CDC
:108760002623263C1EA1A161123A4040207A3854AB
:108770005455592155557941215454784121555426
:10878000784020545579400C1E5272123955555577
:1087900059395454545939555454580000457C4162
:1087A0000002457D420001457C40F0292429F0F07B
:1087B000282528F07C545545002054547C547C0ACC
:1087C000097F4932494949323248484832324A4899
:1087D00048303A4141217A3A42402078009DA0A099
:1087E0007D39444444393D4040403D3C24FF2424ED
:1087F000487E4943662B2FFC2F2BFF0929F620C00A
:10880000887E090320545479410000447D4130485A
:10881000484A32384040227A007A0A0A727D0D199D
:10882000317D2629292F28262929292630484D40FF
:1088300020380808080808080808382F10C8ACBAFB
:108840002F102834FA00007B000008142A1422227A
:10885000142A1408AA005500AAAA55AA55AA00006D
:1088600000FF00101010FF00141414FF001010FF80
:1088700000FF1010F010F0141414FC001414F70092
:10888000FF0000FF00FF1414F404FC141417101F61
:1088900010101F101F1414141F00101010F00000EF
:1088A00000001F101010101F10101010F01000000A
:1088B00000FF101010101010101010FF100000001A
:1088C000FF140000FF00FF00001F10170000FC0451
:1088D000F414141710171414F404F40000FF00F734
:1088E00014141414141414F700F714141417141097
:1088F000101F101F141414F4141010F010F00000C6
:108900001F101F0000001F14000000FC140000F0E6
:1089100010F01010FF10FF141414FF141010101F8B
:1089200000000000F010FFFFFFFFFFF0F0F0F0F09C
:10893000FFFFFF0000000000FFFF0F0F0F0F0F38B9
:10894000444438447C2A2A3E147E02020606027EF3
:10895000027E0263554941633844443C04407E2012
:108960001E2006027E020299A5E7A5991C2A492A23
:108970001C4C7201724C304A4D4D303048784830B2
:10898000BC625A463D3E494949007E0101017E2AAA
:108990002A2A2A2A44445F444440514A44404044DD
:1089A0004A51400000FF0103E080FF000008086B0F
:1089B0006B083612362436060F090F060000181809
:1089C0000000001010003040FF0101001F01011ED7
:1089D00000191D1712003C3C3C3C00000000000048
:1089E0000000000000000000000000000000000087
:1089F00079560B00CD640B00A5400B0091530B0082
:108A0000B7540B00D3540B004F540B00ED540B0024
:108A100023550B003F550B00536F667477617265E9
:108A20002053504900426567696E20493243004235
:108A30006567696E20686172647761726520535062
:108A40004900426567696E20736F6674776172656D
:108A5000205350490000000000000000000000000A
:108A60007B600B0071600B0067600B005D600B00AA
:108A700051600B0045600B00F9710B0001720B0097
:108A800039600B0031600B0027600B001D600B008C
:108A900031720B0000081018202830380000000048
:108AA000000000006170700025592D256D2D256492
:108AB0005425483A254D3A2553257A00617363744D
:108AC000696D65000000000000000000E1670B0018
:108AD000D1670B00D3670B0000000000000000000E
:108AE000F3680B005B690B0031690B00CD640B0070
:108AF00023690B00F5680B0005690B0055690B0035
:108B000015690B00ED680B0000000000000000007C
:108B1000ED690B00596A0B00316A0B00CD640B0044
:108B2000016A0B001D6A0B000F6A0B002B6A0B0019
:108B3000EF690B00F3690B0000000000000000006B
:108B4000916A0B00DB6A0B00B36A0B00936A0B009F
:108B5000BB6A0B00C36A0B00CB6A0B00D36A0B0025
:108B6000776972696E670072656376206572726FED
:108B700072203D202564000000000000000000007D
:108B8000296C0B004D6C0B0037710B005B6C0B00FC
:108B90002D6C0B00000000000000000011410B00D4
:108BA00045410B00A56B0B00BF6B0B00CD6F0B009D
:108BB000E96B0B00436E0B001D6C0B00D56E0B00B8
:108BC000156D0B00716E0B0081700B00116E0B00A8
:108BD0001F6C0B00D16B0B00616C0B00F56C0B0074
:108BE00000000000000000009B710B0091710B0061
:108BF00087710B003D710B007B710B006F710B00D7
:108C0000F9710B0001720B0063710B005B710B00BB
:108C100051710B0047710B0031720B000000000016
:108C200000000000B9710B00C3710B00CD710B0087
:108C3000D7710B00E1710B00ED710B00F9710B00A6
:108C400001720B0009720B0015720B001D720B00F4
:108C500027720B0031720B0000537431395F53706F
:108C60005F6D616B655F7368617265645F74616796
:108C700000000000B48C0B00598C0B00148D0B000D
:108C8000888C0B00388D0B004E31305F5F63787835
:108C9000616269763131375F5F636C6173735F74F2
:108CA0007970655F696E666F450000000000000026
:108CB0007C8C0B00D5750B00E9750B007D770B00E4
:108CC0007D770B0053760B0095750B003B760B0000
:108CD000FD750B00C7750B00148D0B00E48C0B00A9
:108CE0007C8C0B004E31305F5F637878616269760F
:108CF0003132305F5F73695F636C6173735F747986
:108D000070655F696E666F4500000000000000003E
:108D1000D88C0B007D760B0091760B007D770B00D5
:108D20007D770B0053760B0095750B0051770B0088
:108D3000DD760B00A5760B00B48C0B00408D0B008C
:108D4000537439747970655F696E666F005245457A
:108D50004E54206D616C6C6F632073756363656541
:108D6000646564002F6D6E742F776F726B73706122
:108D700063652F776F726B73706163652F47434331
:108D80002D31302D706970656C696E652F6A656E66
:108D90006B696E732D4743432D31302D70697065BB
:108DA0006C696E652D34385F323032303131323497
:108DB0005F313630363138303634312F7372632FAD
:108DC0006E65776C69622F6E65776C69622F6C696E
:108DD00062632F7374646C69622F72616E642E63B8
:108DE00000000000A1460B00514C0B0085600B00F9
:108DF00019620B00BD640B0049660B0059660B003D
:108E00008D660B00A5710B0009730B0000000000BC
:108E1000040000001400000003000000474E55004D
:108E2000B0266DBA2E8FBDF2728F65EEDBD9C30905
:048E30002096499BA4
:048E3400000000003A
:108E3800C8AF0000E45700008CB900008813000098
:108E480050C300001027000020840B002D840B0065
:108E58003A840B0047840B0054840B0001C00000C7
:108E6800000103070F1F3F7F0080C0E0F0F8FCFE01
:108E780000000000000000000000000000000000EA
:108E880000000000000000000000000000000000DA
:108E980000000000000000000000000000000000CA
:108EA800000000000000000000000000000000803A
:108EB80080800000000000000000000000000000AA
:108EC800008080C0C000000000000000000000001A
:108ED800000000000000000000000000000000008A
:108EE800000000000000000000000000000000007A
:108EF800000000000000000000000000000000006A
:108F08000000000080C0E0F0F8FCF8E0000000007D
:108F180000000000000000000000000000808080C9
:108F2800808000808000000000808080808000FFBA
:108F3800FFFF00000000808080800000808000002B
:108F480080FFFF808000808000808080800080809B
:108F58000000000000808000008C8E84000080F8F3
:108F6800F8F8800000000000000000000000000089
:108F7800F0F0F0F0F0F0F0F0F0F0F0F0E0E0C080A9
:108F880000E0FCFEFFFFFF7FFFFFFFFFFF00000088
:108F98000000000000000000000000FEFFC7010103
:108FA800010183FFFF00007CFEC70101010183FF6F
:108FB800FFFF0038FEC78301010183C7FFFF0000E0
:108FC80001FFFF010100FFFF0701010100007FFF12
:108FD80080000000FFFF7F0000FFFFFF000001FF8F
:108FE800FFFF01000000000000000000000000007A
:108FF800030F3F7F7FFFFFFFFFFFFFFFE7C7C78F1D
:109008008F9FBFFFFFC3C0F0FFFFFFFFFFFCFCFC0B
:10901800FCFCFCFCFCF8F8F0F0E0C00001030303E2
:10902800030301030300000000010303030301011C
:10903800030100000001030303030101030300000F
:10904800000303000000030300000000000000010B
:1090580003030303030100000001030100000003F0
:1090680003010000000000000000000000000000F4
:1090780000000080C0E0F0F9FFFFFFFFFF3F1F0F77
:1090880087C7F7FFFF1F1F3DFCF8F8F8F87C7DFF46
:10909800FFFFFFFFFFFFFF7F3F0F0700303000009B
:1090A80000000000000000000000000000000000B8
:1090B80000000000FEFEFC000000000000000000B0
:1090C80000000000000000000000000000E0C000F8
:1090D8000000000000000000000030300000000028
:1090E8000000000000000000000000000000000078
:1090F80000C0FEFFFFFFFFFFFFFFFFFF7F7F3F1F57
:109108000F071F7FFFFFF8F8FFFFFFFFFFFEF8E0E4
:10911800000000010000000000000000FEFE00004A
:1091280000FCFEFC0C06060EFCF80000F0F81C0E15
:109138000606060CFFFFFF0000FEFE00000000FC14
:10914800FEFC00183C7E66E6CE84000006FFFF06A3
:1091580006FCFEFC0C0606060000FEFE0000C0F839
:10916800FC4E4646464E7C7840183C76E6CECC808F
:1091780000000000000000000000000000000000E7
:109188000000000001070F1F1F3F3F3F3F1F0F0355
:109198000000000000000000000000000F0F0000A9
:1091A800000F0F0F000000000F0F000003070E0C48
:1091B80018180C060F0F0F0000010F0E0C180C0FDB
:1091C800070100040E0C180C0F070000000F0F0019
:1091D800000F0F0F0000000000000F0F0000000735
:1091E800070C0C181C0C060600040E0C180C0F07B4
:1091F8000000000000000000000000000000000067
:109208000000000000000000000000000000000056
:109218000000000000000000000000000000000046
:109228000000000000000000000000000000000036
:109238000000000000000000000000000000000026
:109248000000000000000000000000000000000016
:109258000000000000000000000000000000000006
:1092680000000000000000000000000000000000F6
:10927800BC8A0B0030E5032000000000000000005D
:1092880000000000000000000000000000000000D6
:1092980000000000000000000000000000000000C6
:1092A80000000000000000000000000000000000B6
:1092B80000000000000000000000000000000000A6
:1092C8000000000000000000000000000000000096
:0C92D8000000000000000000ECE7032094
:1092E400FFFFFFFF00000102030405060708090A47
:1092F4000B0C0D0E0F101112131415161718191A42
:089304001B1C1D1E1F20280088
:04930C007856341249
:04000003B0004020E9
:00000001FF
